:100000000C9465000C94C5000C94F2000C948D00C7
:100010000C948D000C948D000C948D000C941C0B92
:100020000C948D000C948D000C948D000C948D001C
:100030000C948D000C948D000C948D000C948D000C
:100040000C9418030C948D000C94B0070C94FE07CC
:100050000C948D000C948D000C948D000C948D00EC
:100060000C94F7050C948D0002000000002400277A
:10007000002A0000000000250028002B00000000DE
:1000800000230026002900040404040404040402DC
:100090000202020202030303030303010204081025
:1000A00020408001020408102001020408102000F2
:1000B0000000070002010000030406000000000029
:1000C000000000006A09C009F41011241FBECFEF20
:1000D000D8E0DEBFCDBF11E0A0E0B1E0EEEAF3E290
:1000E00002C005900D92A034B107D9F712E0A0E448
:1000F000B1E001C01D92A83CB107E1F710E0CAECE5
:10010000D0E004C02297FE010E94D111C43CD10767
:10011000C9F70E94780B0C94D5110C940000823022
:1001200000F5E82FF0E0EE0FFF1FE05CFE4F71835B
:100130006083882319F08130A1F408C080916900A0
:100140008C7F842B80936900E89A089580916900E0
:10015000440F551F440F551F837F842B80936900E4
:10016000E99A0895823080F4882319F0813021F4CF
:1001700002C0E89801C0E998E82FF0E0EE0FFF1FF9
:10018000E05CFE4F1182108208951F920F920FB60D
:100190000F9211242F933F934F935F936F937F930D
:1001A0008F939F93AF93BF93EF93FF938091400101
:1001B00090914101892B29F0E0914001F09141019A
:1001C0000995FF91EF91BF91AF919F918F917F9191
:1001D0006F915F914F913F912F910F900FBE0F90B4
:1001E0001F9018951F920F920FB60F9211242F9304
:1001F0003F934F935F936F937F938F939F93AF93AF
:10020000BF93EF93FF938091420190914301892B1B
:1002100029F0E0914201F09143010995FF91EF919E
:10022000BF91AF919F918F917F916F915F914F910E
:100230003F912F910F900FBE0F901F9018950F9325
:100240001F93CF93DF93BC018230910510F462E0DD
:1002500070E0E091C602F091C702A0E0B0E040E09B
:1002600050E024C08081918186179707D0F08617CF
:10027000970771F482819381109729F013969C93CC
:100280008E9312972CC09093C7028093C60227C00A
:100290004115510519F08417950718F4EF018D01E8
:1002A000AC01DF01828193819C01F9013097D1F685
:1002B00041155105F9F0CA01861B970B8430910551
:1002C00080F48A819B810115110521F0F801938347
:1002D000828304C09093C7028093C602FE013296C7
:1002E0002FC0FE01E80FF91F619371930297998364
:1002F000888326C08DB79EB7885790402091000113
:100300003091010128173907C8F4AC01421B530B87
:100310004617570798F0CB0102964817590770F017
:10032000820F931F9093010180930001909303012A
:1003300080930201F9016193719302C0E0E0F0E063
:10034000CF01DF91CF911F910F910895CF93DF934C
:100350009C01009709F48FC0EC0122971B821A823E
:100360006091C6027091C7026115710581F48881A0
:100370009981820F931F209100013091010128176C
:10038000390739F5D0930101C093000174C0DB0136
:1003900040E050E0AC17BD0708F1BB83AA83FE0123
:1003A00021913191E20FF31FAE17BF0779F48D91C0
:1003B0009C911197280F391F2E5F3F4F3983288357
:1003C00012968D919C9113979B838A8341155105B9
:1003D00071F4D093C702C093C6024DC012968D919E
:1003E0009C911397AD01009711F0DC01D3CFDA0196
:1003F0001396DC93CE931297FA0121913191E20F7B
:10040000F31FCE17DF0769F488819981280F391F00
:100410002E5F3F4FFA01318320838A819B81938332
:100420008283E0E0F0E0DB0112968D919C911397BE
:10043000009719F0BC01FD01F6CFAB014E5F5F4F95
:10044000DB018D919C91840F951F209100013091CB
:1004500001012817390779F4309729F41092C7025F
:100460001092C60202C01382128242505040509332
:10047000010140930001DF91CF9108956F927F9227
:100480008F929F92AF92BF92CF92DF92EF92FF92A4
:100490000F931F93CF93DF938C01009729F4CB0127
:1004A0000E941F018C01B4C08EEFE82E8FEFF82E52
:1004B000E00EF11E5801A60EB71EAE14BF0408F4DC
:1004C000A5C0D7014D915C91119746175707B8F019
:1004D0004530510508F49CC0CA0104978617970758
:1004E00008F496C042505040461B570BF50141930B
:1004F00051936D937C93CF010E94A60189C04B015B
:10050000841A950A3801640E751EA091C602B09136
:10051000C702CC24DD24E0E0F0E047C0A615B70513
:10052000A9F5CD91DC911197CE0102968815990518
:1005300068F1CE0188199909029612962C911297AA
:1005400013963C91059758F0F50122833383C8191F
:10055000D909D183C083D7016D937C9309C04E5FC5
:100560005F4F4C0F5D1FF70151834083C901FC01B0
:10057000C114D10431F0D6011396FC93EE93129777
:1005800047C0F093C702E093C60242C08D919C9190
:100590001197E817F90708F4FC016D0112968C9188
:1005A000129713969C919C01D901109709F0B6CF30
:1005B000809100019091010186159705B1F4E6172D
:1005C000F70798F48DB79EB788579040A816B906DC
:1005D000E8F4B0920101A0920001B0920301A09250
:1005E0000201F7017183608313C0CB010E941F01D8
:1005F000EC01009759F0D7014D915C91B8010E9430
:10060000A607C8010E94A6018E0102C000E010E00A
:10061000C801DF91CF911F910F91FF90EF90DF9074
:10062000CF90BF90AF909F908F907F906F900895E4
:100630001F920F920FB60F9211242F933F938F9317
:100640009F93AF93BF938091480190914901A091EE
:100650004A01B0914B0130914C010196A11DB11D91
:10066000232F2D5F2D3720F02D570196A11DB11D91
:1006700020934C018093480190934901A0934A0133
:10068000B0934B018091440190914501A0914601A6
:10069000B09147010196A11DB11D80934401909333
:1006A0004501A0934601B0934701BF91AF919F913F
:1006B0008F913F912F910F900FBE0F901F90189523
:1006C0008FB7F894209148013091490140914A0137
:1006D00050914B018FBFB901CA0108959FB7F8949B
:1006E00020914401309145014091460150914701CC
:1006F00086B5A89B06C08F3F21F02F5F3F4F4F4F1D
:100700005F4F9FBF542F432F322F2227280F311DB9
:10071000411D511D82E0220F331F441F551F8A9532
:10072000D1F7B901CA0108959B01AC017FB7F894D4
:100730008091440190914501A0914601B0914701FB
:1007400066B5A89B05C06F3F19F00196A11DB11DAC
:100750007FBFBA2FA92F982F8827860F911DA11D23
:10076000B11D62E0880F991FAA1FBB1F6A95D1F7C0
:10077000BC012DC0FFB7F8948091440190914501D0
:10078000A0914601B0914701E6B5A89B05C0EF3F97
:1007900019F00196A11DB11DFFBFBA2FA92F982FE7
:1007A00088278E0F911DA11DB11DE2E0880F991FB2
:1007B000AA1FBB1FEA95D1F7861B970B885E934053
:1007C000C8F2215030404040504068517C4F2115C4
:1007D00031054105510571F60895019739F0880FEB
:1007E000991F880F991F02970197F1F70895789440
:1007F00084B5826084BD84B5816084BD85B5826026
:1008000085BD85B5816085BDEEE6F0E080818160C3
:100810008083E1E8F0E010828081826080838081C3
:1008200081608083E0E8F0E0808181608083E1EB9B
:10083000F0E0808184608083E0EBF0E08081816083
:100840008083EAE7F0E08081846080838081826039
:100850008083808181608083808180688083109222
:10086000C1000895CF93DF93482F50E0CA01855609
:100870009F4FFC01349149575F4FFA0184918823BF
:1008800069F190E0880F991FFC01E759FF4FA5918E
:10089000B491FC01ED58FF4FC591D491662351F4FA
:1008A0002FB7F8948C91932F909589238C938881FE
:1008B00089230BC0623061F42FB7F8948C91932F89
:1008C000909589238C938881832B88832FBF06C0C2
:1008D0009FB7F8948C91832B8C939FBFDF91CF911E
:1008E0000895482F50E0CA0181559F4FFC01249183
:1008F000CA0185569F4FFC01949149575F4FFA01F9
:100900003491332309F440C0222351F1233071F094
:10091000243028F42130A1F0223011F514C0263003
:10092000B1F02730C1F02430D9F404C080918000A8
:100930008F7703C0809180008F7D8093800010C0EE
:1009400084B58F7702C084B58F7D84BD09C0809146
:10095000B0008F7703C08091B0008F7D8093B0008E
:10096000E32FF0E0EE0FFF1FED58FF4FA591B4917C
:100970002FB7F894662321F48C919095892302C0B7
:100980008C91892B8C932FBF0895682F70E0CB0139
:1009900081559F4FFC012491CB0185569F4FFC014F
:1009A000449169577F4FFB019491992319F420E0FA
:1009B00030E03CC0222351F1233071F0243028F480
:1009C0002130A1F0223011F514C02630B1F02730CB
:1009D000C1F02430D9F404C0809180008F7703C027
:1009E000809180008F7D8093800010C084B58F77C8
:1009F00002C084B58F7D84BD09C08091B0008F771F
:100A000003C08091B0008F7D8093B000892F90E06B
:100A1000880F991F83589F4FFC01A591B4918C9129
:100A200020E030E0842311F021E030E0C901089596
:100A3000880F8093BA000895382F413210F040E0BB
:100A400042C080914D018823E1F791E090934D01E0
:100A500020934F018FEF8093BA011092750141509E
:100A6000409376014F5F90934E0180914E01330F7A
:100A7000832B80934E0180915001813041F410927C
:100A8000500180914E018093BB0085EC01C085EE42
:100A90008093BC0080914D018130E1F3809175011C
:100AA000841710F44091750120E030E00AC0FB018A
:100AB000E20FF31FD901AB5ABE4F8C9180832F5F99
:100AC0003F4F2417A0F3842F08950F931F93582F9F
:100AD000122F413210F081E04AC080914D018823ED
:100AE000E1F782E080934D0100934F018FEF8093F7
:100AF000BA011092750140937601A5E5B1E0FB01C2
:100B000002C081918D938E2F861B8417D0F3109293
:100B10004E0180914E01550F852B80934E0180919F
:100B20005001813041F41092500180914E01809328
:100B3000BB0085EC01C085EE8093BC00112321F041
:100B400080914D018230E1F38091BA018F3F11F421
:100B500080E00DC08091BA01803211F482E007C0BC
:100B60008091BA01803311F084E001C083E01F91CD
:100B70000F910895482F613210F081E0089580911F
:100B80004D01843011F082E0089560939801A7E749
:100B9000B1E0842F9C01F90102C081918D938E2FC9
:100BA000841B8617D0F380E00895909354018093BE
:100BB0005301089590935201809351010895882321
:100BC00011F085EC01C085E88093BC00089585EDA7
:100BD0008093BC008091BC0084FDFCCF10924D013D
:100BE000089585EC8093BC0010924D0108951F92EA
:100BF0000F920FB60F9211242F933F934F935F9351
:100C00006F937F938F939F93AF93BF93EF93FF93D4
:100C10008091B90090E0887F90708036910509F44A
:100C2000F2C081369105CCF58832910509F47BC07C
:100C300089329105B4F48031910509F46FC0813196
:100C400091053CF4009709F447C1089709F04FC19A
:100C500065C08831910509F466C0809709F047C1E5
:100C600082C08034910509F4A4C08134910544F414
:100C70008033910509F482C0C89709F038C189C052
:100C80008035910509F489C08835910509F496C02D
:100C90008834910509F02BC1AEC08839910509F45B
:100CA00013C189399105ECF48837910509F4ABC07B
:100CB000893791054CF48836910509F4A4C0803732
:100CC000910509F014C19FC08838910509F4FCC052
:100CD0008039910509F49DC08038910509F007C15C
:100CE00098C0803B910509F4C6C0813B91054CF446
:100CF000803A910509F49FC0883A910509F0F7C040
:100D0000BAC0803C910509F4E3C0883C910509F420
:100D1000DFC0883B910509F0EAC0C2C080914E0156
:100D20008093BB00CFC09091750180917601981798
:100D300068F490917501E92FF0E0EB5AFE4F808145
:100D40008093BB009F5F90937501BCC080914F0161
:100D5000882309F44BC085ED8093BC008091BC00D2
:100D600084FDFCCFC2C080E28093BA0185ED809300
:100D7000BC008091BC0084FDFCCFB7C080E38093B1
:100D8000BA0185ED8093BC008091BC0084FDFCCF4E
:100D9000ACC088E38093BA019BC0809175019091AB
:100DA000BB00E82FF0E0EB5AFE4F90838F5F8093FB
:100DB0007501909175018091760182C080917501D5
:100DC0009091BB00E82FF0E0EB5AFE4F90838F5FCD
:100DD0008093750180914F01882341F085ED8093C8
:100DE000BC008091BC0084FDFCCF7FC081E080937B
:100DF000500184EA6EC085ED8093BC008091BC00F8
:100E000084FDFCCF72C083E080934D011092B90144
:100E100059C08091B901803208F056C08091B90163
:100E20009091BB00E82FF0E0E756FE4F90838F5F74
:100E30008093B90147C08091B901803230F4E091CC
:100E4000B901F0E0E756FE4F108285ED8093BC00BB
:100E50008091BC0084FDFCCF10924D016091B901DE
:100E6000E0915301F091540189E991E070E0099516
:100E70001092B9012DC084E080934D01109297012A
:100E800010929801E0915101F091520109958091E1
:100E90009801882329F481E08093980110927701CA
:100EA00090919701E92FF0E0E958FE4F80818093FF
:100EB000BB009F5F9093970190919701809198015B
:100EC000981710F485EC01C085E88093BC000FC032
:100ED00085EC8093BC0009C01092BA0185ED809327
:100EE000BC008091BC0084FDFCCF10924D01FF91AD
:100EF000EF91BF91AF919F918F917F916F915F9192
:100F00004F913F912F910F900FBE0F901F9018950A
:100F100010924D0181E080934F011092500182E1C7
:100F200061E00E94710483E161E00E947104E9EBD9
:100F3000F0E080818E7F808380818D7F808388E454
:100F40008093B80085E48093BC000895FB01DC0128
:100F500002C001900D9241505040D8F70895089575
:100F60001F920F920FB60F9211242F933F934F931E
:100F70008F939F93EF93FF938091C00082FD1DC0DC
:100F80004091C6002091FB013091FC012F5F3F4F43
:100F90002F7330708091FD019091FE012817390761
:100FA00071F0E091FB01F091FC01E554FE4F4083AC
:100FB0003093FC012093FB0102C08091C600FF9199
:100FC000EF919F918F914F913F912F910F900FBE75
:100FD0000F901F901895E0914F02F0915002E05C45
:100FE000FF4F8191919120813181821B930B8F73EF
:100FF0009070892B11F00E94AF0708951F920F92F5
:101000000FB60F9211242F933F938F939F93EF93DB
:10101000FF9320913F0230914002809141029091D4
:1010200042022817390731F48091C1008F7D8093E7
:10103000C10014C0E0914102F0914202E150FE4F24
:101040002081809141029091420201968F739070AD
:1010500090934202809341022093C600FF91EF914A
:101060009F918F913F912F910F900FBE0F901F90E6
:101070001895AF92BF92DF92EF92FF920F931F935A
:10108000CF93DF93EC017A018B01DD24403081EEB8
:10109000580780E0680780E0780711F0DD24D394DA
:1010A00091E0A92EB12CEC89FD89DD2069F0C50104
:1010B00008A002C0880F991F0A94E2F7808360E0BD
:1010C00079E08DE390E005C0108260E874E88EE17D
:1010D00090E0A80197010E94AD112150304040409E
:1010E0005040569547953795279580E12030380731
:1010F00020F0DD2011F0DD24D6CFE889F989308396
:10110000EA89FB89208319A2EE89FF89408121E0C9
:1011100030E0C9010C8C02C0880F991F0A94E2F7D5
:10112000482B4083EE89FF894081C9010D8C02C0A4
:10113000880F991F0A94E2F7482B4083EE89FF89B4
:101140004081C9010E8C02C0880F991F0A94E2F7F2
:10115000482B4083EE89FF8980810F8C02C0220FCB
:10116000331F0A94E2F7209528232083DF91CF9143
:101170001F910F91FF90EF90DF90BF90AF90089577
:10118000DC011C96ED91FC911D97E05CFF4F2191D5
:10119000319180819181281B390B2F733070C901E7
:1011A0000895DC011C96ED91FC911D97E05CFF4FCA
:1011B00020813181E054F040DF01AE5BBF4F8D9163
:1011C0009C9111972817390719F42FEF3FEF07C0AB
:1011D0008D919C91E80FF91F8081282F30E0C90183
:1011E0000895DC011C96ED91FC911D97E05CFF4F8A
:1011F00020813181E054F040DF01AE5BBF4F8D9123
:101200009C9111972817390719F42FEF3FEF10C061
:101210008D919C911197E80FF91F20818D919C91E0
:10122000119701968F73907011969C938E9330E076
:10123000C9010895DC0191968C919197882339F02A
:101240005496ED91FC915597808186FFF9CF919648
:101250001C920895CF93DF93EC01EE85FF85E05C4F
:10126000FF4F20813181E054F0402F5F3F4F2F73BB
:101270003070DF01AE5BBF4F8D919C9111972817A5
:101280003907D1F3E05CFF4F80819181E054F04059
:10129000E80FF91F6083EE85FF85E05CFF4F318327
:1012A0002083EE89FF89208181E090E00F8C02C0CD
:1012B000880F991F0A94E2F7282B208381E089A3E5
:1012C000EC89FD8980818064808381E090E0DF91FA
:1012D000CF910895109246021092450288EE93E055
:1012E000A0E0B0E08093470290934802A0934902A7
:1012F000B0934A0285E191E09093440280934302C7
:101300008BEB91E09093500280934F028FEF91E02E
:10131000909352028093510285EC90E09093540296
:101320008093530284EC90E0909356028093550290
:1013300080EC90E0909358028093570281EC90E00B
:1013400090935A028093590282EC90E090935C0251
:1013500080935B0286EC90E090935E0280935D0246
:1013600084E080935F0283E08093600287E0809353
:10137000610285E08093620281E0809363020895B8
:1013800085E291E090936602809365021092670275
:10139000109268021092690210926A0208958F9268
:1013A0009F92AF92BF92CF92DF92EF92FF920F93F4
:1013B0001F93CF93DF934C016B017C01AA24BB24C4
:1013C000C0E0D0E0C601F70162814AE050E00E942F
:1013D000D20A8C01C6016EE20E943B0A080F191F57
:1013E000A00EB11E21960894E11CF11CC330D1055A
:1013F00049F7C601F40165814AE050E00E94D20A33
:101400009501280F391FC901DF91CF911F910F91CD
:10141000FF90EF90DF90CF90BF90AF909F908F9014
:101420000895CF92DF92EF92FF920F931F93CF9385
:10143000DF937C016B018A01C0E0D0E00FC0D601D0
:101440006D916D01D701ED91FC910190F081E02D3E
:10145000C7010995C80FD91F01501040011511058A
:1014600071F7CE01DF91CF911F910F91FF90EF9017
:10147000DF90CF900895DC01ED91FC910190F08117
:10148000E02D09950895CF93DF93EC016115710567
:1014900019F420E030E00FC0DB010D900020E9F7E7
:1014A0001197A61BB70BE881F9810280F381E02D2B
:1014B000AD0109959C01C901DF91CF9108954F922B
:1014C0005F927F928F929F92AF92BF92CF92DF9264
:1014D000EF92FF920F931F93DF93CF93CDB7DEB7B9
:1014E000A1970FB6F894DEBF0FBECDBF2C01742EAE
:1014F000CB01223008F42AE019A231E2C32ED12C0C
:10150000CC0EDD1E822E9924AA24BB24672D752FB4
:10151000A50194010E94AD1179018A01C801B701AA
:10152000A50194010E948E11472D461B0894C10805
:10153000D1084A3014F4405D01C0495CF601408393
:10154000E114F1040105110521F07E2C5F2DC80185
:10155000DDCFC201B6010E94430AA1960FB6F894EE
:10156000DEBF0FBECDBFCF91DF911F910F91FF90D6
:10157000EF90DF90CF90BF90AF909F908F907F9033
:101580005F904F900895DC012115310541F4ED91F4
:10159000FC910190F081E02D642F099508950E943F
:1015A0005F0A0895EF92FF920F931F939A01E62E20
:1015B000FF2400E010E0B801A7010E94C30A1F91B8
:1015C0000F91FF90EF900895813041F0813018F035
:1015D0008230D1F409C010926E00089580916F009E
:1015E0008D7F80936F000895809170008D7F809330
:1015F000700081E08093B0008091B100887F8460AA
:101600008093B1001092B30008951F93182F80911A
:101610000401811711F09FEF06C0E8E6F0E0949115
:101620008FEF80930401892F0E94E40A812F60E0EC
:101630000E9471041F9108951F920F920FB60F928E
:1016400011242F933F934F935F936F937F938F93C7
:101650009F93AF93BF93EF93FF9380916B02909111
:101660006C02A0916D02B0916E020097A105B105C8
:1016700051F1E0916F02F0917002808190917102BE
:101680008927808380916B0290916C02A0916D02FA
:10169000B0916E02181619061A061B06C4F4809142
:1016A0006B0290916C02A0916D02B0916E02019755
:1016B000A109B10980936B0290936C02A0936D0213
:1016C000B0936E0204C0809104010E94050BFF914B
:1016D000EF91BF91AF919F918F917F916F915F91AA
:1016E0004F913F912F910F900FBE0F901F90189523
:1016F000CF93DF930E94F7030E947710CBEED7E0E1
:101700000E94F50B2097E1F30E94EB07F9CF0E94AE
:10171000A6010895FC01DB018BE291E091838083B7
:101720008D919C9111979383828312968D919C91B8
:1017300013979583848314968D919C911597978325
:10174000868316968D919C9117979187808718961E
:101750008D919C911997938782871A968D919C9170
:101760001B97958784871786168686E090E0918B75
:10177000808B0895FC018BE291E09183808386E069
:1017800090E0918B808B0895FC018BE291E0918336
:10179000808386E090E0918B808BCF010E94870B45
:1017A000089565E070E080E090E00E949403089561
:1017B0000F931F930AEB12E0C80160E770E00E94EC
:1017C000BA10C80160E00E943C11C8016CE50E949B
:1017D0003C11C8010E947F1165E070E080E090E05C
:1017E0000E9494031F910F9108950E94D80B67E205
:1017F00071E080E090E00E9494030E94D10B67E2C8
:1018000071E080E090E00E9494030E94D10B67E2B7
:1018100071E080E090E00E9494030E94D80B67E2A0
:1018200071E080E090E00E9494030E94D10B67E297
:1018300071E080E090E00E9494030E94D10B67E287
:1018400071E080E090E00E9494030E94D10B67E277
:1018500071E080E090E00E9494030E94D10B67E267
:1018600071E080E090E00E9494030E94D10B67E257
:1018700071E080E090E00E9494030E94D10B67E247
:1018800071E080E090E00E9494030E94D10B67E237
:1018900071E080E090E00E9494030E94D10B67E227
:1018A00071E080E090E00E9494030E94D80B67E210
:1018B00071E080E090E00E9494030E94D10B67E207
:1018C00071E080E090E00E9494030E94D10B67E2F7
:1018D00071E080E090E00E9494030E94D10B67E2E7
:1018E00071E080E090E00E9494030E94D10B67E2D7
:1018F00071E080E090E00E9494030E94D10B67E2C7
:1019000071E080E090E00E9494030E94D10B67E2B6
:1019100071E080E090E00E9494030E94D80B67E29F
:1019200071E080E090E00E9494030E94D10B67E296
:1019300071E080E090E00E9494030E94D10B67E286
:1019400071E080E090E00E9494030E94D10B67E276
:1019500071E080E090E00E9494030E94D10B67E266
:1019600071E080E090E00E9494030E94D10B67E256
:1019700071E080E090E00E9494030E94D10B67E246
:1019800071E080E090E00E9494030E94D10B67E236
:1019900071E080E090E00E9494030E94D80B67E21F
:1019A00071E080E090E00E9494030E94D10B67E216
:1019B00071E080E090E00E9494030E94D80B67E2FF
:1019C00071E080E090E00E9494030E94D80B67E2EF
:1019D00071E080E090E00E9494030E94D80B67E2DF
:1019E00071E080E090E00E9494030E94D80B67E2CF
:1019F00071E080E090E00E9494030E94D80B67E2BF
:101A000071E080E090E00E9494030E94D80B67E2AE
:101A100071E080E090E00E9494030E94D80B67E29E
:101A200071E080E090E00E9494030E94D80B67E28E
:101A300071E080E090E00E9494030E94D10B67E285
:101A400071E080E090E00E9494030E94D10B67E275
:101A500071E080E090E00E9494030E94D10B67E265
:101A600071E080E090E00E9494030E94D10B67E255
:101A700071E080E090E00E9494030E94D80B67E23E
:101A800071E080E090E00E9494030E94D80B67E22E
:101A900071E080E090E00E9494030E94D10B67E225
:101AA00071E080E090E00E9494030E94D10B67E215
:101AB00071E080E090E00E94940360E177E280E0D2
:101AC00090E00E9494030E94D80B67E271E080E0EE
:101AD00090E00E9494030E94D10B67E271E080E0E5
:101AE00090E00E9494030E94D10B67E271E080E0D5
:101AF00090E00E9494030E94D10B67E271E080E0C5
:101B000090E00E9494030E94D80B67E271E080E0AD
:101B100090E00E9494030E94D10B67E271E080E0A4
:101B200090E00E9494030E94D10B67E271E080E094
:101B300090E00E9494030E94D10B67E271E080E084
:101B400090E00E9494030E94D10B67E271E080E074
:101B500090E00E9494030E94D10B67E271E080E064
:101B600090E00E9494030E94D10B67E271E080E054
:101B700090E00E9494030E94D10B67E271E080E044
:101B800090E00E9494030E94D80B67E271E080E02D
:101B900090E00E9494030E94D10B67E271E080E024
:101BA00090E00E9494030E94D10B67E271E080E014
:101BB00090E00E9494030E94D10B67E271E080E004
:101BC00090E00E9494030E94D10B67E271E080E0F4
:101BD00090E00E9494030E94D10B67E271E080E0E4
:101BE00090E00E9494030E94D10B67E271E080E0D4
:101BF00090E00E9494030E94D80B67E271E080E0BD
:101C000090E00E9494030E94D10B67E271E080E0B3
:101C100090E00E94940360E177E280E090E00E940F
:101C200094030E94D80B67E271E080E090E00E948C
:101C300094030E94D10B67E271E080E090E00E9483
:101C400094030E94D10B67E271E080E090E00E9473
:101C500094030E94D10B67E271E080E090E00E9463
:101C600094030E94D10B67E271E080E090E00E9453
:101C700094030E94D10B67E271E080E090E00E9443
:101C800094030E94D10B67E271E080E090E00E9433
:101C900094030E94D10B67E271E080E090E00E9423
:101CA00094030E94D10B67E271E080E090E00E9413
:101CB00094030E94D10B67E271E080E090E00E9403
:101CC00094030E94D10B67E271E080E090E00E94F3
:101CD00094030E94D10B67E271E080E090E00E94E3
:101CE00094030E94D80B67E271E080E090E00E94CC
:101CF00094030E94D10B67E271E080E090E00E94C3
:101D000094030E94D10B67E271E080E090E00E94B2
:101D100094030E94D10B67E271E080E090E00E94A2
:101D200094030E94D10B67E271E080E090E00E9492
:101D300094030E94D10B67E271E080E090E00E9482
:101D400094030E94D10B67E271E080E090E00E9472
:101D500094030E94D80B67E271E080E090E00E945B
:101D600094030E94D10B67E271E080E090E00E9452
:101D7000940360E177E280E090E00E9494030E9487
:101D8000D80B67E271E080E090E00E9494030E942B
:101D9000D10B67E271E080E090E00E9494030E9422
:101DA000D10B67E271E080E090E00E9494030E9412
:101DB000D80B67E271E080E090E00E9494030E94FB
:101DC000D10B67E271E080E090E00E9494030E94F2
:101DD000D10B67E271E080E090E00E9494030E94E2
:101DE000D10B67E271E080E090E00E9494030E94D2
:101DF000D10B67E271E080E090E00E9494030E94C2
:101E0000D10B67E271E080E090E00E9494030E94B1
:101E1000D10B67E271E080E090E00E9494030E94A1
:101E2000D10B67E271E080E090E00E9494030E9491
:101E3000D10B67E271E080E090E00E9494030E9481
:101E4000D80B67E271E080E090E00E9494030E946A
:101E5000D10B67E271E080E090E00E9494030E9461
:101E6000D10B67E271E080E090E00E9494030E9451
:101E7000D10B67E271E080E090E00E9494030E9441
:101E8000D10B67E271E080E090E00E9494030E9431
:101E9000D10B67E271E080E090E00E9494030E9421
:101EA000D10B67E271E080E090E00E9494030E9411
:101EB000D80B67E271E080E090E00E9494030E94FA
:101EC000D10B67E271E080E090E00E9494030E94F1
:101ED000D10B67E271E080E090E00E9494030E94E1
:101EE000D10B67E271E080E090E00E9494030E94D1
:101EF000D10B67E271E080E090E00E9494030E94C1
:101F0000D10B67E271E080E090E00E9494030E94B0
:101F1000D10B67E271E080E090E00E9494030E94A0
:101F2000D10B67E271E080E090E00E9494030E9490
:101F3000D80B67E271E080E090E00E9494030E9479
:101F4000D80B67E271E080E090E00E9494030E9469
:101F5000D10B67E271E080E090E00E9494030E9460
:101F6000D10B67E271E080E090E00E9494030E9450
:101F7000D10B67E271E080E090E00E9494030E9440
:101F8000D10B67E271E080E090E00E9494030E9430
:101F9000D10B67E271E080E090E00E9494030E9420
:101FA000D10B67E271E080E090E00E9494030E9410
:101FB000D80B67E271E080E090E00E9494030E94F9
:101FC000D80B67E271E080E090E00E9494030E94E9
:101FD000D80B67E271E080E090E00E9494030E94D9
:101FE000D80B67E271E080E090E00E9494030E94C9
:101FF000D80B67E271E080E090E00E9494030E94B9
:10200000D80B67E271E080E090E00E9494030E94A8
:10201000D80B67E271E080E090E00E9494030E9498
:10202000D80B67E271E080E090E00E9494030E9488
:10203000D80B67E271E080E090E00E9494030E9478
:10204000D10B67E271E080E090E00E9494030E946F
:10205000D10B67E271E080E090E00E9494030E945F
:10206000D10B67E271E080E090E00E9494030E944F
:10207000D10B67E271E080E090E00E9494030E943F
:10208000D10B67E271E080E090E00E9494030E942F
:10209000D10B67E271E080E090E00E9494030E941F
:1020A000D80B67E271E080E090E00E9494030E9408
:1020B000D80B67E271E080E090E00E9494030E94F8
:1020C000D80B67E271E080E090E00E94940360E149
:1020D00077E280E090E00E94940308950F931F93AD
:1020E0008C010E948A0BC8011F910F9108950F93D4
:1020F0001F93DF93CF93CDB7DEB762970FB6F894F7
:10210000DEBF0FBECDBF0091720210917302CE01EF
:10211000019665E071E00E946E10D8011296FE01F2
:1021200033968CE001900D928150E1F78F8598896C
:10213000F8019787868789899A89918B808BCE0150
:1021400001960E94BA0B8AEB92E00E94831183E40D
:1021500092E040E05BE460E070E00E943908629643
:102160000FB6F894DEBF0FBECDBFCF91DF911F91A8
:102170000F91089581E08093B902609396021092C6
:10218000B7021092B80208952091950230E0809134
:102190009402281B3109C90108954091940280914D
:1021A0009502481718F02FEF3FEF0AC0E42FF0E038
:1021B000EC58FD4F8081282F30E04F5F4093940210
:1021C000C9010895E091940280919502E81718F0F2
:1021D000EFEFFFEF06C0F0E0EC58FD4F8081E82FF5
:1021E000F0E0CF01089508951092BD021092BC0254
:1021F00088EE93E0A0E0B0E08093BE029093BF022F
:10220000A093C002B093C10283E391E09093BB021C
:102210008093BA020895CF92DF92EF92FF920F93CC
:102220001F93CF93DF937C016B018A018091B902E8
:102230008823A1F0C0E0D0E00DC0D701ED91FC9162
:10224000D601AC0FBD1F0190F081E02DC7016C914C
:1022500009952196C017D10780F304C0CB01642FE4
:102260000E94BA05C801DF91CF911F910F91FF9095
:10227000EF90DF90CF900895DF93CF930F92CDB77B
:10228000DEB7FC0169838091B9028823C9F080918F
:10229000B802803238F081E090E09383828320E0BE
:1022A00030E015C08091B702E82FF0E0E956FD4F0D
:1022B000998190838F5F8093B7028093B80205C0A5
:1022C000CE01019661E00E94BA0521E030E0C9012B
:1022D0000F90CF91DF9108950F93062F8091960272
:1022E00067E972E04091B80221E00E946505109212
:1022F000B7021092B8021092B9020F91089561E0EE
:102300000E946C11089510929402109295021092FE
:10231000B7021092B8020E9488070895629FD00108
:10232000739FF001829FE00DF11D649FE00DF11D90
:10233000929FF00D839FF00D749FF00D659FF00D3F
:102340009927729FB00DE11DF91F639FB00DE11D2C
:10235000F91FBD01CF0111240895A1E21A2EAA1B75
:10236000BB1BFD010DC0AA1FBB1FEE1FFF1FA21745
:10237000B307E407F50720F0A21BB30BE40BF50B42
:10238000661F771F881F991F1A9469F760957095CB
:10239000809590959B01AC01BD01CF010895EE0F92
:0E23A000FF1F0590F491E02D0994F894FFCFF3
:1023AE00C8026400FF0100000001000000010000EF
:1023BE0000000000002A09110AC008F108D1081A0D
:1023CE000900000000CF0900000000BA0BC40B008A
:1023DE000000003C110B11C410CD10E210F31000E0
:00000001FF
