:100000000C9466000C94C6000C94F3000C948E00C3
:100010000C948E000C948E000C948E000C94C50BE6
:100020000C948E000C948E000C948E000C948E0018
:100030000C948E000C948E000C948E000C948E0008
:100040000C9419030C948E000C94B1070C94FF07C8
:100050000C948E000C948E000C948E000C948E00E8
:100060000C94F8050C948E00020000000024002778
:10007000002A0000000000250028002B00000000DE
:1000800000230026002900040404040404040402DC
:100090000202020202030303030303010204081025
:1000A00020408001020408102001020408102000F2
:1000B0000000070002010000030406000000000029
:1000C000000000006B09C109510CD50E11241FBEA0
:1000D000CFEFD8E0DEBFCDBF11E0A0E0B1E0E2E9B4
:1000E000FFE102C005900D92A23BB107D9F713E0E2
:1000F000A2EBB1E001C01D92AB37B107E1F710E010
:10010000CCECD0E004C02297FE010E94C30FC43C97
:10011000D107C9F70E94210C0C94C70F0C94000062
:10012000823000F5E82FF0E0EE0FFF1FEE54FE4F97
:1001300071836083882319F08130A1F408C0809115
:1001400069008C7F842B80936900E89A08958091E0
:100150006900440F551F440F551F837F842B8093E4
:100160006900E99A0895823080F4882319F081307B
:1001700021F402C0E89801C0E998E82FF0E0EE0F02
:10018000FF1FEE54FE4F1182108208951F920F92AE
:100190000FB60F9211242F933F934F935F936F935A
:1001A0007F938F939F93AF93BF93EF93FF93809130
:1001B000B2019091B301892B29F0E091B201F09145
:1001C000B3010995FF91EF91BF91AF919F918F91ED
:1001D0007F916F915F914F913F912F910F900FBE43
:1001E0000F901F9018951F920F920FB60F92112427
:1001F0002F933F934F935F936F937F938F939F932F
:10020000AF93BF93EF93FF938091B4019091B501A9
:10021000892B29F0E091B401F091B5010995FF9186
:10022000EF91BF91AF919F918F917F916F915F916E
:100230004F913F912F910F900FBE0F901F901895E7
:100240000F931F93CF93DF93BC018230910510F47D
:1002500062E070E0E0917903F0917A03A0E0B0E011
:1002600040E050E024C08081918186179707D0F04C
:100270008617970771F482819381109729F013965E
:100280009C938E9312972CC090937A03809379035A
:1002900027C04115510519F08417950718F4EF018F
:1002A0008D01AC01DF01828193819C01F9013097BE
:1002B000D1F641155105F9F0CA01861B970B843020
:1002C000910580F48A819B810115110521F0F801C7
:1002D0009383828304C090937A0380937903FE0111
:1002E00032962FC0FE01E80FF91F619371930297B8
:1002F0009983888326C08DB79EB7885790402091F8
:1003000000013091010128173907C8F4AC01421BE4
:10031000530B4617570798F0CB0102964817590719
:1003200070F0820F931F90930101809300019093CE
:10033000030180930201F9016193719302C0E0E02F
:10034000F0E0CF01DF91CF911F910F910895CF93EE
:10035000DF939C01009709F48FC0EC0122971B8268
:100360001A826091790370917A036115710581F4A5
:1003700088819981820F931F2091000130910101A2
:100380002817390739F5D0930101C093000174C0D3
:10039000DB0140E050E0AC17BD0708F1BB83AA8346
:1003A000FE0121913191E20FF31FAE17BF0779F4DF
:1003B0008D919C911197280F391F2E5F3F4F3983E4
:1003C000288312968D919C9113979B838A83411564
:1003D000510571F4D0937A03C09379034DC01296FE
:1003E0008D919C911397AD01009711F0DC01D3CF53
:1003F000DA011396DC93CE931297FA012191319191
:10040000E20FF31FCE17DF0769F488819981280F67
:10041000391F2E5F3F4FFA01318320838A819B81F0
:1004200093838283E0E0F0E0DB0112968D919C9152
:100430001397009719F0BC01FD01F6CFAB014E5F99
:100440005F4FDB018D919C91840F951F20910001DE
:10045000309101012817390779F4309729F4109267
:100460007A031092790302C01382128242505040E4
:100470005093010140930001DF91CF9108956F9255
:100480007F928F929F92AF92BF92CF92DF92EF9224
:10049000FF920F931F93CF93DF938C01009729F462
:1004A000CB010E9420018C01B4C08EEFE82E8FEFAB
:1004B000F82EE00EF11E5801A60EB71EAE14BF04B2
:1004C00008F4A5C0D7014D915C91119746175707C5
:1004D000B8F04530510508F49CC0CA01049786174E
:1004E000970708F496C042505040461B570BF50141
:1004F000419351936D937C93CF010E94A70189C0D2
:100500004B01841A950A3801640E751EA091790377
:10051000B0917A03CC24DD24E0E0F0E047C0A615DA
:10052000B705A9F5CD91DC911197CE0102968815FA
:10053000990568F1CE0188199909029612962C91B5
:10054000129713963C91059758F0F5012283338357
:10055000C819D909D183C083D7016D937C9309C091
:100560004E5F5F4F4C0F5D1FF70151834083C90100
:10057000FC01C114D10431F0D6011396FC93EE9323
:10058000129747C0F0937A03E093790342C08D91AC
:100590009C911197E817F90708F4FC016D01129678
:1005A0008C91129713969C919C01D901109709F098
:1005B000B6CF809100019091010186159705B1F4A5
:1005C000E617F70798F48DB79EB788579040A8169E
:1005D000B906E8F4B0920101A0920001B0920301C3
:1005E000A0920201F7017183608313C0CB010E94C6
:1005F0002001EC01009759F0D7014D915C91B801B1
:100600000E94A707C8010E94A7018E0102C000E056
:1006100010E0C801DF91CF911F910F91FF90EF90F3
:10062000DF90CF90BF90AF909F908F907F906F9012
:1006300008951F920F920FB60F9211242F933F939C
:100640008F939F93AF93BF938091BA019091BB0119
:10065000A091BC01B091BD013091BE010196A11DD8
:10066000B11D232F2D5F2D3720F02D570196A11D91
:10067000B11D2093BE018093BA019093BB01A0935A
:10068000BC01B093BD018091B6019091B701A091DA
:10069000B801B091B9010196A11DB11D8093B601B9
:1006A0009093B701A093B801B093B901BF91AF91F6
:1006B0009F918F913F912F910F900FBE0F901F90A0
:1006C00018958FB7F8942091BA013091BB014091F1
:1006D000BC015091BD018FBFB901CA0108959FB7F8
:1006E000F8942091B6013091B7014091B801509132
:1006F000B90186B5A89B06C08F3F21F02F5F3F4F01
:100700004F4F5F4F9FBF542F432F322F2227280F69
:10071000311D411D511D82E0220F331F441F551F03
:100720008A95D1F7B901CA0108959B01AC017FB741
:10073000F8948091B6019091B701A091B801B09161
:10074000B90166B5A89B05C06F3F19F00196A11DC0
:10075000B11D7FBFBA2FA92F982F8827860F911D13
:10076000A11DB11D62E0880F991FAA1FBB1F6A95CA
:10077000D1F7BC012DC0FFB7F8948091B6019091DC
:10078000B701A091B801B091B901E6B5A89B05C029
:10079000EF3F19F00196A11DB11DFFBFBA2FA92F80
:1007A000982F88278E0F911DA11DB11DE2E0880FA3
:1007B000991FAA1FBB1FEA95D1F7861B970B885E6E
:1007C0009340C8F2215030404040504068517C4F27
:1007D000211531054105510571F60895019739F04C
:1007E000880F991F880F991F02970197F1F70895B5
:1007F000789484B5826084BD84B5816084BD85B5FC
:10080000826085BD85B5816085BDEEE6F0E08081C2
:1008100081608083E1E8F0E01082808182608083E3
:10082000808181608083E0E8F0E080818160808366
:10083000E1EBF0E0808184608083E0EBF0E0808198
:1008400081608083EAE7F0E080818460808380813A
:1008500082608083808181608083808180688083E2
:100860001092C1000895CF93DF93482F50E0CA0142
:1008700085569F4FFC01349149575F4FFA0184918F
:10088000882369F190E0880F991FFC01E759FF4F19
:10089000A591B491FC01ED58FF4FC591D491662309
:1008A00051F42FB7F8948C91932F909589238C93C2
:1008B000888189230BC0623061F42FB7F8948C9142
:1008C000932F909589238C938881832B88832FBFC6
:1008D00006C09FB7F8948C91832B8C939FBFDF91B8
:1008E000CF910895482F50E0CA0181559F4FFC01D8
:1008F0002491CA0185569F4FFC01949149575F4F3F
:10090000FA013491332309F440C0222351F12330FA
:1009100071F0243028F42130A1F0223011F514C0F8
:100920002630B1F02730C1F02430D9F404C08091D2
:1009300080008F7703C0809180008F7D809380003E
:1009400010C084B58F7702C084B58F7D84BD09C087
:100950008091B0008F7703C08091B0008F7D80932D
:10096000B000E32FF0E0EE0FFF1FED58FF4FA59111
:10097000B4912FB7F894662321F48C919095892334
:1009800002C08C91892B8C932FBF0895682F70E043
:10099000CB0181559F4FFC012491CB0185569F4F80
:1009A000FC01449169577F4FFB019491992319F4FD
:1009B00020E030E03CC0222351F1233071F024309C
:1009C00028F42130A1F0223011F514C02630B1F006
:1009D0002730C1F02430D9F404C0809180008F7793
:1009E00003C0809180008F7D8093800010C084B50B
:1009F0008F7702C084B58F7D84BD09C08091B0001F
:100A00008F7703C08091B0008F7D8093B000892FD5
:100A100090E0880F991F83589F4FFC01A591B491D6
:100A20008C9120E030E0842311F021E030E0C90116
:100A30000895880F8093BA000895382F413210F03E
:100A400040E042C08091BF018823E1F791E090939C
:100A5000BF012093C1018FEF80932C021092E70118
:100A600041504093E8014F5F9093C0018091C001D5
:100A7000330F832B8093C0018091C201813041F4F8
:100A80001092C2018091C0018093BB0085EC01C02F
:100A900085EE8093BC008091BF018130E1F38091AD
:100AA000E701841710F44091E70120E030E00AC02C
:100AB000FB01E20FF31FD901A953BE4F8C91808334
:100AC0002F5F3F4F2417A0F3842F08950F931F9398
:100AD000582F122F413210F081E04AC08091BF019F
:100AE0008823E1F782E08093BF010093C1018FEF7B
:100AF00080932C021092E7014093E801A7ECB1E04B
:100B0000FB0102C081918D938E2F861B8417D0F339
:100B10001092C0018091C001550F852B8093C001B8
:100B20008091C201813041F41092C2018091C001D4
:100B30008093BB0085EC01C085EE8093BC0011233F
:100B400021F08091BF018230E1F380912C028F3F30
:100B500011F480E00DC080912C02803211F482E00B
:100B600007C080912C02803311F084E001C083E043
:100B70001F910F910895482F613210F081E0089580
:100B80008091BF01843011F082E0089560930A02E1
:100B9000A9EEB1E0842F9C01F90102C081918D93EF
:100BA0008E2F841B8617D0F380E008959093C601A2
:100BB0008093C50108959093C4018093C301089563
:100BC000882311F085EC01C085E88093BC0008956E
:100BD00085ED8093BC008091BC0084FDFCCF109219
:100BE000BF01089585EC8093BC001092BF01089569
:100BF0001F920F920FB60F9211242F933F934F9392
:100C00005F936F937F938F939F93AF93BF93EF9374
:100C1000FF938091B90090E0887F907080369105B5
:100C200009F4F2C081369105CCF58832910509F4BA
:100C30007BC089329105B4F48031910509F46FC00D
:100C4000813191053CF4009709F447C1089709F0F8
:100C50004FC165C08831910509F466C0809709F0DD
:100C600047C182C08034910509F4A4C08134910544
:100C700044F48033910509F482C0C89709F038C163
:100C800089C08035910509F489C08835910509F43A
:100C900096C08834910509F02BC1AEC08839910502
:100CA00009F413C189399105ECF48837910509F4E9
:100CB000ABC0893791054CF48836910509F4A4C07E
:100CC0008037910509F014C19FC08838910509F457
:100CD000FCC08039910509F49DC08038910509F068
:100CE00007C198C0803B910509F4C6C0813B9105BE
:100CF0004CF4803A910509F49FC0883A910509F0B7
:100D0000F7C0BAC0803C910509F4E3C0883C910566
:100D100009F4DFC0883B910509F0EAC0C2C08091A8
:100D2000C0018093BB00CFC09091E7018091E801A2
:100D3000981768F49091E701E92FF0E0E953FE4F2E
:100D400080818093BB009F5F9093E701BCC080913E
:100D5000C101882309F44BC085ED8093BC008091CC
:100D6000BC0084FDFCCFC2C080E280932C0285EDE4
:100D70008093BC008091BC0084FDFCCFB7C080E3B1
:100D800080932C0285ED8093BC008091BC0084FD93
:100D9000FCCFACC088E380932C029BC08091E7011C
:100DA0009091BB00E82FF0E0E953FE4F90838F5FF6
:100DB0008093E7019091E7018091E80182C08091E2
:100DC000E7019091BB00E82FF0E0E953FE4F9083DC
:100DD0008F5F8093E7018091C101882341F085ED09
:100DE0008093BC008091BC0084FDFCCF7FC081E07B
:100DF0008093C20184EA6EC085ED8093BC0080912F
:100E0000BC0084FDFCCF72C083E08093BF011092D0
:100E10002B0259C080912B02803208F056C080917D
:100E20002B029091BB00E82FF0E0E55FFD4F90832F
:100E30008F5F80932B0247C080912B02803230F469
:100E4000E0912B02F0E0E55FFD4F108285ED80938D
:100E5000BC008091BC0084FDFCCF1092BF0160916A
:100E60002B02E091C501F091C6018BE092E070E0A9
:100E7000099510922B022DC084E08093BF0110923F
:100E8000090210920A02E091C301F091C401099590
:100E900080910A02882329F481E080930A0210924B
:100EA000E90190910902E92FF0E0E751FE4F8081BE
:100EB0008093BB009F5F90930902909109028091FB
:100EC0000A02981710F485EC01C085E88093BC00F5
:100ED0000FC085EC8093BC0009C010922C0285EDF8
:100EE0008093BC008091BC0084FDFCCF1092BF01B8
:100EF000FF91EF91BF91AF919F918F917F916F91F2
:100F00005F914F913F912F910F900FBE0F901F90C7
:100F100018951092BF0181E08093C1011092C20127
:100F200082E161E00E94720483E161E00E94720448
:100F3000E9EBF0E080818E7F808380818D7F8083EC
:100F400088E48093B80085E48093BC000895FB0199
:100F5000DC0102C001900D9241505040D8F7089535
:100F600008951F920F920FB60F9211242F933F9363
:100F70004F938F939F93EF93FF938091C00082FDD7
:100F80001DC04091C60020916D0230916E022F5F0E
:100F90003F4F2F73307080916F029091700228172D
:100FA000390771F0E0916D02F0916E02E35DFD4F43
:100FB000408330936E0220936D0202C08091C60080
:100FC000FF91EF919F918F914F913F912F910F90B2
:100FD0000FBE0F901F901895E091C102F091C202D0
:100FE000E05CFF4F8191919120813181821B930BB5
:100FF0008F739070892B11F00E94B00708951F9293
:101000000F920FB60F9211242F933F938F939F93BC
:10101000EF93FF932091B1023091B2028091B3021D
:101020009091B4022817390731F48091C1008F7D67
:101030008093C10014C0E091B302F091B402EF5864
:10104000FD4F20818091B3029091B40201968F737D
:1010500090709093B4028093B3022093C600FF91E6
:10106000EF919F918F913F912F910F900FBE0F9015
:101070001F901895AF92BF92DF92EF92FF920F935D
:101080001F93CF93DF93EC017A018B01DD24403075
:1010900081EE580780E0680780E0780711F0DD24D2
:1010A000D39491E0A92EB12CEC89FD89DD2069F063
:1010B000C50108A002C0880F991F0A94E2F7808337
:1010C00060E079E08DE390E005C0108260E874E8AC
:1010D0008EE190E0A80197010E949F0F21503040BF
:1010E00040405040569547953795279580E12030F0
:1010F000380720F0DD2011F0DD24D6CFE889F9890A
:101100003083EA89FB89208319A2EE89FF89408117
:1011100021E030E0C9010C8C02C0880F991F0A94AD
:10112000E2F7482B4083EE89FF894081C9010D8C8D
:1011300002C0880F991F0A94E2F7482B4083EE897A
:10114000FF894081C9010E8C02C0880F991F0A9443
:10115000E2F7482B4083EE89FF8980810F8C02C023
:10116000220F331F0A94E2F7209528232083DF9172
:10117000CF911F910F91FF90EF90DF90BF90AF90B4
:101180000895DC011C96ED91FC911D97E05CFF4FEA
:101190002191319180819181281B390B2F733070FF
:1011A000C9010895DC011C96ED91FC911D97E05C4E
:1011B000FF4F20813181E054F040DF01AE5BBF4F33
:1011C0008D919C9111972817390719F42FEF3FEF54
:1011D00007C08D919C91E80FF91F8081282F30E086
:1011E000C9010895DC011C96ED91FC911D97E05C0E
:1011F000FF4F20813181E054F040DF01AE5BBF4FF3
:101200008D919C9111972817390719F42FEF3FEF13
:1012100010C08D919C911197E80FF91F20818D913D
:101220009C91119701968F73907011969C938E9359
:1012300030E0C9010895DC0191968C919197882343
:1012400039F05496ED91FC915597808186FFF9CF46
:1012500091961C920895CF93DF93EC01EE85FF8564
:10126000E05CFF4F20813181E054F0402F5F3F4F21
:101270002F733070DF01AE5BBF4F8D919C91119742
:1012800028173907D1F3E05CFF4F80819181E0544A
:10129000F040E80FF91F6083EE85FF85E05CFF4FAB
:1012A00031832083EE89FF89208181E090E00F8CDB
:1012B00002C0880F991F0A94E2F7282B208381E04F
:1012C00089A3EC89FD8980818064808381E090E03E
:1012D000DF91CF9108951092B8021092B70288EE74
:1012E00093E0A0E0B0E08093B9029093BA02A0939B
:1012F000BB02B093BC0288E891E09093B602809361
:10130000B5028DE292E09093C2028093C10281E720
:1013100092E09093C4028093C30285EC90E0909396
:10132000C6028093C50284EC90E09093C80280933B
:10133000C70280EC90E09093CA028093C90281ECCE
:1013400090E09093CC028093CB0282EC90E090935B
:10135000CE028093CD0286EC90E09093D0028093F1
:10136000CF0284E08093D10283E08093D20287E0B1
:101370008093D30285E08093D40281E08093D502EC
:10138000089588E991E09093D8028093D702109253
:10139000D9021092DA021092DB021092DC02089558
:1013A0008F929F92AF92BF92CF92DF92EF92FF9275
:1013B0000F931F93CF93DF934C016B017C01AA2401
:1013C000BB24C0E0D0E0C601F70162814AE050E0F2
:1013D0000E94F30A8C01C6016EE20E943C0A080FCB
:1013E000191FA00EB11E21960894E11CF11CC330F8
:1013F000D10549F7C601F40165814AE050E00E9439
:10140000F30A9501280F391FC901DF91CF911F9170
:101410000F91FF90EF90DF90CF90BF90AF909F9093
:101420008F900895CF92DF92EF92FF920F931F93C8
:10143000CF93DF937C016B018A01C0E0D0E00FC045
:10144000D6016D916D01D701ED91FC910190F08174
:10145000E02DC7010995C80FD91F01501040011593
:10146000110571F7CE01DF91CF911F910F91FF9080
:10147000EF90DF90CF900895DC01ED91FC91019009
:10148000F081E02D09950895EF92FF920F931F933D
:101490008C01DC01ED91FC910190F081E02D6DE07B
:1014A00009957C01D801ED91FC910190F081E02D2E
:1014B000C8016AE009959C012E0D3F1DC9011F91CD
:1014C0000F91FF90EF900895CF93DF93EC0161159A
:1014D000710519F420E030E00FC0DB010D90002011
:1014E000E9F71197A61BB70BE881F9810280F38118
:1014F000E02DAD0109959C01C901DF91CF910895BF
:101500004F925F927F928F929F92AF92BF92CF92B3
:10151000DF92EF92FF920F931F93DF93CF93CDB79C
:10152000DEB7A1970FB6F894DEBF0FBECDBF2C017A
:10153000742ECB01223008F42AE019A231E2C32E26
:10154000D12CCC0EDD1E822E9924AA24BB24672D1B
:10155000752FA50194010E949F0F79018A01C8018E
:10156000B701A50194010E94800F472D461B0894E6
:10157000C108D1084A3014F4405D01C0495CF6014D
:101580004083E114F1040105110521F07E2C5F2D4B
:10159000C801DDCFC201B6010E94640AA1960FB650
:1015A000F894DEBF0FBECDBFCF91DF911F910F9199
:1015B000FF90EF90DF90CF90BF90AF909F908F9073
:1015C0007F905F904F900895DC012115310541F423
:1015D000ED91FC910190F081E02D642F0995089523
:1015E0000E94800A0895EF92FF920F931F939A0131
:1015F000E62EFF2400E010E0B801A7010E94E40AF3
:101600001F910F91FF90EF900895CF92DF92EF928C
:10161000FF920F931F93CF93DF93EC016A017B013D
:101620002115310541F4E881F9810190F081E02D27
:10163000642F09951FC02A303105D1F477FF17C0F8
:10164000E881F9810190F081E02D6DE209958C012E
:1016500044275527BA014C195D096E097F09CE014F
:101660002AE00E94800A9801280F391F04C02AE04E
:101670000E94800A9C01C901DF91CF911F910F91B7
:10168000FF90EF90DF90CF900895EF92FF920F932D
:101690001F937B019A010027F7FC0095102FB801DA
:1016A000A7010E94050B1F910F91FF90EF900895E5
:1016B000CF92DF92EF92FF920F931F936C017B0109
:1016C0009A010027F7FC0095102FB801A7010E948E
:1016D000050B8C01C6010E94440A080F191FC8019E
:1016E0001F910F91FF90EF90DF90CF9008950E948F
:1016F000640A0895EF92FF920F931F937C010E945A
:10170000640A8C01C7010E94440A080F191FC8010E
:101710001F910F91FF90EF900895813041F081303B
:1017200018F08230D1F409C010926E0008958091B3
:101730006F008D7F80936F000895809170008D7F82
:101740008093700081E08093B0008091B100887F29
:1017500084608093B1001092B30008951F93182FF6
:1017600080917501811711F09FEF06C0E8E6F0E067
:1017700094918FEF80937501892F0E948D0B812F9B
:1017800060E00E9472041F9108951F920F920FB69D
:101790000F9211242F933F934F935F936F937F93F7
:1017A0008F939F93AF93BF93EF93FF938091DD024D
:1017B0009091DE02A091DF02B091E0020097A105B6
:1017C000B10551F1E091E102F091E2028081909146
:1017D000E302892780838091DD029091DE02A0914F
:1017E000DF02B091E002181619061A061B06C4F4AF
:1017F0008091DD029091DE02A091DF02B091E002C3
:101800000197A109B1098093DD029093DE02A093B4
:10181000DF02B093E00204C0809175010E94AE0B1C
:10182000FF91EF91BF91AF919F918F917F916F91B8
:101830005F914F913F912F910F900FBE0F901F908E
:101840001895CF93DF930E94F8030E947E0DCCEE93
:10185000D7E00E943F0D2097E1F30E94EC07F9CFFB
:101860000E94A7010895FC01158216821782DC01EF
:1018700080E018961C9218978F5F11968032C9F7F6
:1018800010A612A611A605A8F6A9E02D309709F01A
:1018900009950895FC017183608312820E94330CC4
:1018A000089584EE92E065EB72E00E944A0C089580
:1018B0000F931F930DE613E0C80161E770E00E94EB
:1018C0009B0EC80160E00E941D0FC80168E50E94E0
:1018D0001D0FC8010E94600F62E070E080E090E0A0
:1018E0000E9495031F910F9108950F931F938DE60A
:1018F00093E061E770E00E949B0E8DE693E060E06C
:101900000E941D0F8DE693E00E94600F62E070E080
:1019100080E090E00E94950320C08DE693E061E7AF
:1019200070E041E050E00E94710F8DE693E00E946C
:10193000AE0E909377018093760185EB92E061E2A1
:1019400071E00E94770B609176017091770185EBD1
:1019500092E04AE050E00E94580B8091760190910D
:1019600077018F5F9F4FC9F28DE693E061E770E0EA
:101970000E949B0E8DE693E062E00E941D0F8DE6B3
:1019800093E00E94600F62E070E080E090E00E94CF
:1019900095038DE693E061E770E042E050E00E943D
:1019A000710F8DE693E00E94AE0E182F00E01093A9
:1019B000200300931F038DE693E00E94AE0E082BD8
:1019C000192B1093200300931F0385EB92E06DE326
:1019D00071E00E94770B60911F037091200385EBEB
:1019E00092E04AE050E00E94580B85EB92E067E4F9
:1019F00071E00E94770B80911F0390912003895F13
:101A00009A422CF085EB92E062E571E004C085EB30
:101A100092E064E571E00E947A0B85EB92E066E566
:101A200071E00E947A0B1F910F9108950F931F93FD
:101A300085EB92E064E671E00E947A0B65E070E06D
:101A400080E090E00E9495030DE613E0C80160E796
:101A500070E00E949B0EC80160E00E941D0FC8014B
:101A60006CE50E941D0FC8010E94600F62E070E0EB
:101A700080E090E00E9495031F910F91089580915E
:101A80002303909124030E946C0E9093260380936D
:101A9000250385EB92E069E671E00E94770B609187
:101AA00025037091260385EB92E04AE050E00E9406
:101AB000580B8091250390912603019711F40E9401
:101AC000160D8FEF9FEF90937701809376010E9420
:101AD000580C0E94750C809121039091220301966D
:101AE000909322038093210308950F931F938C01F9
:101AF0000E942D0EC8011F910F9108950F931F93FF
:101B0000DF93CF93CDB7DEB762970FB6F894DEBF01
:101B10000FBECDBF0091230310912403CE01019687
:101B200068E771E00E94750DD8011296FE013396A8
:101B30008CE001900D928150E1F78F859889F80132
:101B40009787868789899A89918B808BCE010196A8
:101B50000E945D0E8DE693E00E94750F85EB92E08A
:101B600040E05BE460E070E00E943A0868EE73E0F9
:101B700080E090E00E94950385EB92E06FE671E0D3
:101B80000E94770B80912303909124030E94670E9B
:101B9000FC016081718185EB92E04AE050E00E9497
:101BA000450B80912303909124030E94670EFC0152
:101BB0006281738185EB92E04AE050E00E94450B20
:101BC00080912303909124030E94670EFC0164819D
:101BD000758185EB92E04AE050E00E94450B8091D0
:101BE0002303909124030E94670EFC016681778194
:101BF00085EB92E04AE050E00E94450B8091230380
:101C0000909124030E94670EFC016085718585EB2D
:101C100092E04AE050E00E94450B809123039091AE
:101C200024030E94670EFC016285738585EB92E0B8
:101C30004AE050E00E94580B60ED77E080E090E0D1
:101C40000E94950362960FB6F894DEBF0FBECDBF1B
:101C5000CF91DF911F910F910895FC01DB018EE977
:101C600091E0918380838D919C91119793838283DE
:101C700012968D919C9113979583848314968D91E0
:101C80009C9115979783868316968D919C911797B3
:101C90009187808718968D919C9119979387828759
:101CA0001A968D919C911B97958784871786168627
:101CB00086E090E0918B808B0895FC018EE991E0A5
:101CC0009183808386E090E0918B808B08959C01C6
:101CD0002E5F3F4FC9010895DC011E962D913C9166
:101CE0001F97A9014F5F5F4FFA01EE0FFF1FEA0F29
:101CF000FB1F6081718150968D919C915197019746
:101D0000281739072CF41F965C934E931E9704C036
:101D10001F961C921E921E97CB010895FC018EE91E
:101D200091E09183808386E090E0918B808BCF015E
:101D30000E94300C089581E080936C036093490306
:101D400010926A0310926B0308952091480330E0CB
:101D500080914703281B3109C90108954091470329
:101D600080914803481718F02FEF3FEF0AC0E42F87
:101D7000F0E0E95DFC4F8081282F30E04F5F409319
:101D80004703C9010895E091470380914803E8178C
:101D900018F0EFEFFFEF06C0F0E0E95DFC4F808147
:101DA000E82FF0E0CF01089508951092700310928B
:101DB0006F0388EE93E0A0E0B0E08093710390930E
:101DC0007203A0937303B093740386EA91E0909337
:101DD0006E0380936D030895CF92DF92EF92FF928E
:101DE0000F931F93CF93DF937C016B018A01809146
:101DF0006C038823A1F0C0E0D0E00DC0D701ED91C5
:101E0000FC91D601AC0FBD1F0190F081E02DC70100
:101E10006C9109952196C017D10780F304C0CB01BE
:101E2000642F0E94BB05C801DF91CF911F910F91D4
:101E3000FF90EF90DF90CF900895DF93CF930F92B4
:101E4000CDB7DEB7FC01698380916C038823C9F0AC
:101E500080916B03803238F081E090E0938382833D
:101E600020E030E015C080916A03E82FF0E0E65BE7
:101E7000FC4F998190838F5F80936A0380936B03FB
:101E800005C0CE01019661E00E94BB0521E030E073
:101E9000C9010F90CF91DF9108950F93062F809184
:101EA00049036AE473E040916B0321E00E946605F8
:101EB00010926A0310926B0310926C030F910895B5
:101EC00061E00E944D0F0895413208F040E2862FF4
:101ED00067E273E00E941D05109247038093480358
:101EE000089521E00E94640F089510924703109214
:101EF000480310926A0310926B030E9489070895A9
:101F0000629FD001739FF001829FE00DF11D649FDD
:101F1000E00DF11D929FF00D839FF00D749FF00D69
:101F2000659FF00D9927729FB00DE11DF91F639F0A
:101F3000B00DE11DF91FBD01CF0111240895A1E2EB
:101F40001A2EAA1BBB1BFD010DC0AA1FBB1FEE1F33
:101F5000FF1FA217B307E407F50720F0A21BB30B7E
:101F6000E40BF50B661F771F881F991F1A9469F7FA
:101F700060957095809590959B01AC01BD01CF0156
:101F80000895EE0FFF1F0590F491E02D0994F89449
:021F9000FFCF81
:101F92007B036400436F6E74726F6C6C6572526582
:101FA20061646F75744669726D77617265303A204B
:101FB20000436F6E74726F6C6C6572526561646F10
:101FC20075744669726D776172653A200053656374
:101FD2006F6E64733A2000444154412D4249543A91
:101FE2002000300031002A2A2A2A2A2A2A2A2A2ACA
:101FF2002A2A2A0050494E47002A2A702A2A004DCE
:1020020073673A2000FFFFFF00000100010000009B
:1020120000000100000000002B09120AC108F208AA
:10202200D2081B0900000000D009000000005D0E6C
:102032008E0E000000001D0FEC0EA50EAE0EC30E9C
:02204200D40EBA
:00000001FF
